{
  "_format": "hh-sol-artifact-1",
  "contractName": "MultiWallet",
  "sourceName": "contracts/MultiWallet.sol",
  "abi": [
    {
      "inputs": [
        {
          "internalType": "address[]",
          "name": "_owners",
          "type": "address[]"
        },
        {
          "internalType": "uint256",
          "name": "_numConfirmationRequired",
          "type": "uint256"
        }
      ],
      "stateMutability": "nonpayable",
      "type": "constructor"
    },
    {
      "anonymous": false,
      "inputs": [
        {
          "indexed": false,
          "internalType": "uint256",
          "name": "transactionId",
          "type": "uint256"
        }
      ],
      "name": "TxConfirmed",
      "type": "event"
    },
    {
      "anonymous": false,
      "inputs": [
        {
          "indexed": false,
          "internalType": "uint256",
          "name": "transactionId",
          "type": "uint256"
        }
      ],
      "name": "TxExecuted",
      "type": "event"
    },
    {
      "anonymous": false,
      "inputs": [
        {
          "indexed": false,
          "internalType": "uint256",
          "name": "transactionId",
          "type": "uint256"
        },
        {
          "indexed": false,
          "internalType": "address",
          "name": "sender",
          "type": "address"
        },
        {
          "indexed": false,
          "internalType": "address",
          "name": "receiver",
          "type": "address"
        },
        {
          "indexed": false,
          "internalType": "uint256",
          "name": "amount",
          "type": "uint256"
        }
      ],
      "name": "TxSubmitted",
      "type": "event"
    },
    {
      "inputs": [
        {
          "internalType": "uint256",
          "name": "_transactionId",
          "type": "uint256"
        }
      ],
      "name": "confirmTx",
      "outputs": [],
      "stateMutability": "nonpayable",
      "type": "function"
    },
    {
      "inputs": [
        {
          "internalType": "uint256",
          "name": "_transactionId",
          "type": "uint256"
        }
      ],
      "name": "executeTx",
      "outputs": [],
      "stateMutability": "payable",
      "type": "function"
    },
    {
      "inputs": [
        {
          "internalType": "uint256",
          "name": "_transactionId",
          "type": "uint256"
        }
      ],
      "name": "isTransactionConfirmed",
      "outputs": [
        {
          "internalType": "bool",
          "name": "",
          "type": "bool"
        }
      ],
      "stateMutability": "view",
      "type": "function"
    },
    {
      "inputs": [],
      "name": "numConfirm",
      "outputs": [
        {
          "internalType": "uint256",
          "name": "",
          "type": "uint256"
        }
      ],
      "stateMutability": "view",
      "type": "function"
    },
    {
      "inputs": [
        {
          "internalType": "uint256",
          "name": "",
          "type": "uint256"
        }
      ],
      "name": "owners",
      "outputs": [
        {
          "internalType": "address",
          "name": "",
          "type": "address"
        }
      ],
      "stateMutability": "view",
      "type": "function"
    },
    {
      "inputs": [
        {
          "internalType": "address",
          "name": "_to",
          "type": "address"
        }
      ],
      "name": "submitTX",
      "outputs": [],
      "stateMutability": "payable",
      "type": "function"
    },
    {
      "inputs": [
        {
          "internalType": "uint256",
          "name": "",
          "type": "uint256"
        }
      ],
      "name": "transactions",
      "outputs": [
        {
          "internalType": "address",
          "name": "to",
          "type": "address"
        },
        {
          "internalType": "uint256",
          "name": "value",
          "type": "uint256"
        },
        {
          "internalType": "bool",
          "name": "executed",
          "type": "bool"
        }
      ],
      "stateMutability": "view",
      "type": "function"
    }
  ],
  "bytecode": "0x60806040523480156200001157600080fd5b5060405162001781380380620017818339818101604052810190620000379190620004aa565b60018251116200007e576040517f08c379a0000000000000000000000000000000000000000000000000000000008152600401620000759062000597565b60405180910390fd5b60008111801562000090575081518111155b620000d2576040517f08c379a0000000000000000000000000000000000000000000000000000000008152600401620000c9906200062f565b60405180910390fd5b8060008190555060005b82518110156200027857600073ffffffffffffffffffffffffffffffffffffffff1683828151811062000114576200011362000651565b5b602002602001015173ffffffffffffffffffffffffffffffffffffffff160362000175576040517f08c379a00000000000000000000000000000000000000000000000000000000081526004016200016c90620006d0565b60405180910390fd5b60018382815181106200018d576200018c62000651565b5b60200260200101519080600181540180825580915050600190039060005260206000200160009091909190916101000a81548173ffffffffffffffffffffffffffffffffffffffff021916908373ffffffffffffffffffffffffffffffffffffffff16021790555060016003600085848151811062000211576200021062000651565b5b602002602001015173ffffffffffffffffffffffffffffffffffffffff1673ffffffffffffffffffffffffffffffffffffffff16815260200190815260200160002060006101000a81548160ff0219169083151502179055508080600101915050620000dc565b505050620006f2565b6000604051905090565b600080fd5b600080fd5b600080fd5b6000601f19601f8301169050919050565b7f4e487b7100000000000000000000000000000000000000000000000000000000600052604160045260246000fd5b620002e5826200029a565b810181811067ffffffffffffffff82111715620003075762000306620002ab565b5b80604052505050565b60006200031c62000281565b90506200032a8282620002da565b919050565b600067ffffffffffffffff8211156200034d576200034c620002ab565b5b602082029050602081019050919050565b600080fd5b600073ffffffffffffffffffffffffffffffffffffffff82169050919050565b6000620003908262000363565b9050919050565b620003a28162000383565b8114620003ae57600080fd5b50565b600081519050620003c28162000397565b92915050565b6000620003df620003d9846200032f565b62000310565b905080838252602082019050602084028301858111156200040557620004046200035e565b5b835b818110156200043257806200041d8882620003b1565b84526020840193505060208101905062000407565b5050509392505050565b600082601f83011262000454576200045362000295565b5b815162000466848260208601620003c8565b91505092915050565b6000819050919050565b62000484816200046f565b81146200049057600080fd5b50565b600081519050620004a48162000479565b92915050565b60008060408385031215620004c457620004c36200028b565b5b600083015167ffffffffffffffff811115620004e557620004e462000290565b5b620004f3858286016200043c565b9250506020620005068582860162000493565b9150509250929050565b600082825260208201905092915050565b7f5468657265206d757374206265206174206c65617374206d6f7265207468616e60008201527f2074776f206f776e657273000000000000000000000000000000000000000000602082015250565b60006200057f602b8362000510565b91506200058c8262000521565b604082019050919050565b60006020820190508181036000830152620005b28162000570565b9050919050565b7f546865206e756d626572206f6620636f6e6669726d6174696f6e7320646f657360008201527f206e6f7420657175616c20746865206e756d626572206f66206f776e65727300602082015250565b600062000617603f8362000510565b91506200062482620005b9565b604082019050919050565b600060208201905081810360008301526200064a8162000608565b9050919050565b7f4e487b7100000000000000000000000000000000000000000000000000000000600052603260045260246000fd5b7f496e76616c6964204f776e657200000000000000000000000000000000000000600082015250565b6000620006b8600d8362000510565b9150620006c58262000680565b602082019050919050565b60006020820190508181036000830152620006eb81620006a9565b9050919050565b61107f80620007026000396000f3fe6080604052600436106100705760003560e01c80636f265ba91161004e5780636f265ba91461010b578063801be060146101275780639ace38c214610150578063f123e3b01461018f57610070565b8063025e7c27146100755780630b1cd2c0146100b257806354b5fe80146100ef575b600080fd5b34801561008157600080fd5b5061009c60048036038101906100979190610a08565b6101ba565b6040516100a99190610a76565b60405180910390f35b3480156100be57600080fd5b506100d960048036038101906100d49190610a08565b6101f9565b6040516100e69190610aac565b60405180910390f35b61010960048036038101906101049190610a08565b61031c565b005b61012560048036038101906101209190610af3565b610565565b005b34801561013357600080fd5b5061014e60048036038101906101499190610a08565b610734565b005b34801561015c57600080fd5b5061017760048036038101906101729190610a08565b610960565b60405161018693929190610b2f565b60405180910390f35b34801561019b57600080fd5b506101a46109c7565b6040516101b19190610b66565b60405180910390f35b600181815481106101ca57600080fd5b906000526020600020016000915054906101000a900473ffffffffffffffffffffffffffffffffffffffff1681565b60006004805490508210610242576040517f08c379a000000000000000000000000000000000000000000000000000000000815260040161023990610bde565b60405180910390fd5b6000805b60005481101561030d576002600085815260200190815260200160002060006001838154811061027957610278610bfe565b5b9060005260206000200160009054906101000a900473ffffffffffffffffffffffffffffffffffffffff1673ffffffffffffffffffffffffffffffffffffffff1673ffffffffffffffffffffffffffffffffffffffff16815260200190815260200160002060009054906101000a900460ff16156103005781806102fc90610c5c565b9250505b8080600101915050610246565b50600054811015915050919050565b6004805490508110610363576040517f08c379a000000000000000000000000000000000000000000000000000000000815260040161035a90610cf0565b60405180910390fd5b6004818154811061037757610376610bfe565b5b906000526020600020906003020160020160009054906101000a900460ff16156103d6576040517f08c379a00000000000000000000000000000000000000000000000000000000081526004016103cd90610d5c565b60405180910390fd5b6000600482815481106103ec576103eb610bfe565b5b906000526020600020906003020160000160009054906101000a900473ffffffffffffffffffffffffffffffffffffffff1673ffffffffffffffffffffffffffffffffffffffff166004838154811061044857610447610bfe565b5b90600052602060002090600302016001015460405161046690610dad565b60006040518083038185875af1925050503d80600081146104a3576040519150601f19603f3d011682016040523d82523d6000602084013e6104a8565b606091505b50509050806104ec576040517f08c379a00000000000000000000000000000000000000000000000000000000081526004016104e390610e0e565b60405180910390fd5b60016004838154811061050257610501610bfe565b5b906000526020600020906003020160020160006101000a81548160ff0219169083151502179055507f93fbc709d9f9290b7a6b4c56546e5ac117eab4b159daa1e5d68b570da75f3405826040516105599190610b66565b60405180910390a15050565b600073ffffffffffffffffffffffffffffffffffffffff168173ffffffffffffffffffffffffffffffffffffffff16036105d4576040517f08c379a00000000000000000000000000000000000000000000000000000000081526004016105cb90610e7a565b60405180910390fd5b60003411610617576040517f08c379a000000000000000000000000000000000000000000000000000000000815260040161060e90610ee6565b60405180910390fd5b60006004805490509050600460405180606001604052808473ffffffffffffffffffffffffffffffffffffffff16815260200134815260200160001515815250908060018154018082558091505060019003906000526020600020906003020160009091909190915060008201518160000160006101000a81548173ffffffffffffffffffffffffffffffffffffffff021916908373ffffffffffffffffffffffffffffffffffffffff1602179055506020820151816001015560408201518160020160006101000a81548160ff02191690831515021790555050507f9cce147de64c8db688b02cc7956d49bd97e2a301e738bcbba142abe797c6ab5e813384346040516107289493929190610f06565b60405180910390a15050565b600360003373ffffffffffffffffffffffffffffffffffffffff1673ffffffffffffffffffffffffffffffffffffffff16815260200190815260200160002060009054906101000a900460ff166107c0576040517f08c379a00000000000000000000000000000000000000000000000000000000081526004016107b790610f97565b60405180910390fd5b6004805490508110610807576040517f08c379a00000000000000000000000000000000000000000000000000000000081526004016107fe90610cf0565b60405180910390fd5b6002600082815260200190815260200160002060003373ffffffffffffffffffffffffffffffffffffffff1673ffffffffffffffffffffffffffffffffffffffff16815260200190815260200160002060009054906101000a900460ff16156108a5576040517f08c379a000000000000000000000000000000000000000000000000000000000815260040161089c90611029565b60405180910390fd5b60016002600083815260200190815260200160002060003373ffffffffffffffffffffffffffffffffffffffff1673ffffffffffffffffffffffffffffffffffffffff16815260200190815260200160002060006101000a81548160ff0219169083151502179055507f5f2ebbe07828d064386029509d3478ea6b64f38a8a7cdffb88175bac97dbb7928160405161093d9190610b66565b60405180910390a161094e816101f9565b1561095d5761095c8161031c565b5b50565b6004818154811061097057600080fd5b90600052602060002090600302016000915090508060000160009054906101000a900473ffffffffffffffffffffffffffffffffffffffff16908060010154908060020160009054906101000a900460ff16905083565b60005481565b600080fd5b6000819050919050565b6109e5816109d2565b81146109f057600080fd5b50565b600081359050610a02816109dc565b92915050565b600060208284031215610a1e57610a1d6109cd565b5b6000610a2c848285016109f3565b91505092915050565b600073ffffffffffffffffffffffffffffffffffffffff82169050919050565b6000610a6082610a35565b9050919050565b610a7081610a55565b82525050565b6000602082019050610a8b6000830184610a67565b92915050565b60008115159050919050565b610aa681610a91565b82525050565b6000602082019050610ac16000830184610a9d565b92915050565b610ad081610a55565b8114610adb57600080fd5b50565b600081359050610aed81610ac7565b92915050565b600060208284031215610b0957610b086109cd565b5b6000610b1784828501610ade565b91505092915050565b610b29816109d2565b82525050565b6000606082019050610b446000830186610a67565b610b516020830185610b20565b610b5e6040830184610a9d565b949350505050565b6000602082019050610b7b6000830184610b20565b92915050565b600082825260208201905092915050565b7f496e76616c6964205472616e73616374696f6e00000000000000000000000000600082015250565b6000610bc8601383610b81565b9150610bd382610b92565b602082019050919050565b60006020820190508181036000830152610bf781610bbb565b9050919050565b7f4e487b7100000000000000000000000000000000000000000000000000000000600052603260045260246000fd5b7f4e487b7100000000000000000000000000000000000000000000000000000000600052601160045260246000fd5b6000610c67826109d2565b91507fffffffffffffffffffffffffffffffffffffffffffffffffffffffffffffffff8203610c9957610c98610c2d565b5b600182019050919050565b7f496e76616c6964207472616e73616374696f6e00000000000000000000000000600082015250565b6000610cda601383610b81565b9150610ce582610ca4565b602082019050919050565b60006020820190508181036000830152610d0981610ccd565b9050919050565b7f5472616e73616374696f6e20697320616c726561647920657865637574656400600082015250565b6000610d46601f83610b81565b9150610d5182610d10565b602082019050919050565b60006020820190508181036000830152610d7581610d39565b9050919050565b600081905092915050565b50565b6000610d97600083610d7c565b9150610da282610d87565b600082019050919050565b6000610db882610d8a565b9150819050919050565b7f5472616e73616374696f6e20457865637574696f6e204661696c656420000000600082015250565b6000610df8601d83610b81565b9150610e0382610dc2565b602082019050919050565b60006020820190508181036000830152610e2781610deb565b9050919050565b7f696e76616c696400000000000000000000000000000000000000000000000000600082015250565b6000610e64600783610b81565b9150610e6f82610e2e565b602082019050919050565b60006020820190508181036000830152610e9381610e57565b9050919050565b7f4974206d7573742062652067726561746572207468616e203000000000000000600082015250565b6000610ed0601983610b81565b9150610edb82610e9a565b602082019050919050565b60006020820190508181036000830152610eff81610ec3565b9050919050565b6000608082019050610f1b6000830187610b20565b610f286020830186610a67565b610f356040830185610a67565b610f426060830184610b20565b95945050505050565b7f4572726f722c20796f7520617265206e6f7420616e206f776e65720000000000600082015250565b6000610f81601b83610b81565b9150610f8c82610f4b565b602082019050919050565b60006020820190508181036000830152610fb081610f74565b9050919050565b7f5472616e73616374696f6e20697320616c726561647920636f6e6669726d206260008201527f79206f776e657200000000000000000000000000000000000000000000000000602082015250565b6000611013602783610b81565b915061101e82610fb7565b604082019050919050565b6000602082019050818103600083015261104281611006565b905091905056fea2646970667358221220ac7a5aa2cf831fcf6c9b69188211b155ed0b881209362f2cdd80c0df4517adda64736f6c63430008180033",
  "linkReferences": {},
  "deployedLinkReferences": {}
}